{
  "transactions": [
    {
      "hash": "0xfad77b8e6c70230b69577cf8d0a8bbab3c8eaeb5fa899231868586d23c1a2b6b",
      "transactionType": "CREATE",
      "contractName": "WETH9",
      "contractAddress": "0xF084549E15599AaD0420109a82d59348800CB1Aa",
      "function": null,
      "arguments": null,
      "transaction": {
        "type": "0x02",
        "from": "0x0ccfc28ce76f48726c59fc2a598b6eaac8bd3ab4",
        "gas": "0xb5640",
        "value": "0x0",
        "data": "0x60c0604052600d60809081526c2bb930b83832b21022ba3432b960991b60a05260009061002c9082610114565b506040805180820190915260048152630ae8aa8960e31b60208201526001906100559082610114565b506002805460ff1916601217905534801561006f57600080fd5b506101d3565b634e487b7160e01b600052604160045260246000fd5b600181811c9082168061009f57607f821691505b6020821081036100bf57634e487b7160e01b600052602260045260246000fd5b50919050565b601f82111561010f57600081815260208120601f850160051c810160208610156100ec5750805b601f850160051c820191505b8181101561010b578281556001016100f8565b5050505b505050565b81516001600160401b0381111561012d5761012d610075565b6101418161013b845461008b565b846100c5565b602080601f831160018114610176576000841561015e5750858301515b600019600386901b1c1916600185901b17855561010b565b600085815260208120601f198616915b828110156101a557888601518255948401946001909101908401610186565b50858210156101c35787850151600019600388901b60f8161c191681555b5050505050600190811b01905550565b610809806101e26000396000f3fe60806040526004361061009c5760003560e01c8063313ce56711610064578063313ce5671461015b57806370a082311461018757806395d89b41146101b4578063a9059cbb146101c9578063d0e30db0146101e9578063dd62ed3e146101f157600080fd5b806306fdde03146100a1578063095ea7b3146100cc57806318160ddd146100fc57806323b872dd146101195780632e1a7d4d14610139575b600080fd5b3480156100ad57600080fd5b506100b6610229565b6040516100c39190610626565b60405180910390f35b3480156100d857600080fd5b506100ec6100e7366004610690565b6102b7565b60405190151581526020016100c3565b34801561010857600080fd5b50475b6040519081526020016100c3565b34801561012557600080fd5b506100ec6101343660046106ba565b610324565b34801561014557600080fd5b506101596101543660046106f6565b6104e7565b005b34801561016757600080fd5b506002546101759060ff1681565b60405160ff90911681526020016100c3565b34801561019357600080fd5b5061010b6101a236600461070f565b60036020526000908152604090205481565b3480156101c057600080fd5b506100b66105aa565b3480156101d557600080fd5b506100ec6101e4366004610690565b6105b7565b6101596105cb565b3480156101fd57600080fd5b5061010b61020c36600461072a565b600460209081526000928352604080842090915290825290205481565b600080546102369061075d565b80601f01602080910402602001604051908101604052809291908181526020018280546102629061075d565b80156102af5780601f10610284576101008083540402835291602001916102af565b820191906000526020600020905b81548152906001019060200180831161029257829003601f168201915b505050505081565b3360008181526004602090815260408083206001600160a01b038716808552925280832085905551919290917f8c5be1e5ebec7d5bd14f71427d1e84f3dd0314c0f7b2291e5b200ac8c7c3b925906103129086815260200190565b60405180910390a35060015b92915050565b6001600160a01b03831660009081526003602052604081205482111561036b5760405162461bcd60e51b815260206004820152600060248201526044015b60405180910390fd5b6001600160a01b03841633148015906103a957506001600160a01b038416600090815260046020908152604080832033845290915290205460001914155b15610434576001600160a01b03841660009081526004602090815260408083203384529091529020548211156103fb5760405162461bcd60e51b81526020600482015260006024820152604401610362565b6001600160a01b03841660009081526004602090815260408083203384529091528120805484929061042e9084906107ad565b90915550505b6001600160a01b0384166000908152600360205260408120805484929061045c9084906107ad565b90915550506001600160a01b038316600090815260036020526040812080548492906104899084906107c0565b92505081905550826001600160a01b0316846001600160a01b03167fddf252ad1be2c89b69c2b068fc378daa952ba7f163c4a11628f55a4df523b3ef846040516104d591815260200190565b60405180910390a35060019392505050565b336000908152600360205260409020548111156105205760405162461bcd60e51b81526020600482015260006024820152604401610362565b336000908152600360205260408120805483929061053f9084906107ad565b9091555050604051339082156108fc029083906000818181858888f19350505050158015610571573d6000803e3d6000fd5b5060405181815233907f7fcf532c15f0a6db0bd6d0e038bea71d30d808c7d98cb3bf7268a95bf5081b659060200160405180910390a250565b600180546102369061075d565b60006105c4338484610324565b9392505050565b33600090815260036020526040812080543492906105ea9084906107c0565b909155505060405134815233907fe1fffcc4923d04b559f4d29a8bfc6cda04eb5b0d3c460751c2402c5c5cc9109c9060200160405180910390a2565b600060208083528351808285015260005b8181101561065357858101830151858201604001528201610637565b506000604082860101526040601f19601f8301168501019250505092915050565b80356001600160a01b038116811461068b57600080fd5b919050565b600080604083850312156106a357600080fd5b6106ac83610674565b946020939093013593505050565b6000806000606084860312156106cf57600080fd5b6106d884610674565b92506106e660208501610674565b9150604084013590509250925092565b60006020828403121561070857600080fd5b5035919050565b60006020828403121561072157600080fd5b6105c482610674565b6000806040838503121561073d57600080fd5b61074683610674565b915061075460208401610674565b90509250929050565b600181811c9082168061077157607f821691505b60208210810361079157634e487b7160e01b600052602260045260246000fd5b50919050565b634e487b7160e01b600052601160045260246000fd5b8181038181111561031e5761031e610797565b8082018082111561031e5761031e61079756fea26469706673582212200c814f41768829e4710e90b8c5366e19a96f14edac35ea7dcd116bdffae2f70564736f6c63430008140033",
        "nonce": "0x70",
        "accessList": []
      },
      "additionalContracts": [],
      "isFixedGasLimit": false
    },
    {
      "hash": "0x07c71b99289d788af03ef0dce851f61b6c71079c199796b38fe024b5e2e19edb",
      "transactionType": "CALL",
      "contractName": null,
      "contractAddress": "0x3E8D3319CbB430685CA1b100f83E4C882e65D635",
      "function": "approve(address,uint256):(bool)",
      "arguments": [
        "0xcbC9ce7898517049175280288f3838593Adcc660",
        "1000000000000000000 \u001b[2;49;39m[1e18]\u001b[0m"
      ],
      "transaction": {
        "type": "0x02",
        "from": "0x0ccfc28ce76f48726c59fc2a598b6eaac8bd3ab4",
        "to": "0x3e8d3319cbb430685ca1b100f83e4c882e65d635",
        "gas": "0x108a1",
        "value": "0x0",
        "data": "0x095ea7b3000000000000000000000000cbc9ce7898517049175280288f3838593adcc6600000000000000000000000000000000000000000000000000de0b6b3a7640000",
        "nonce": "0x71",
        "accessList": []
      },
      "additionalContracts": [],
      "isFixedGasLimit": false
    },
    {
      "hash": "0x27c308d34da08221d04be141bf570b8b415bb975d3c3541e42cee50899400a48",
      "transactionType": "CALL",
      "contractName": null,
      "contractAddress": "0x083C06f4191e5350ba7Ce70a9Ab86c601b17cCFf",
      "function": "approve(address,uint256):(bool)",
      "arguments": [
        "0xcbC9ce7898517049175280288f3838593Adcc660",
        "2000000000000000000 \u001b[2;49;39m[2e18]\u001b[0m"
      ],
      "transaction": {
        "type": "0x02",
        "from": "0x0ccfc28ce76f48726c59fc2a598b6eaac8bd3ab4",
        "to": "0x083c06f4191e5350ba7ce70a9ab86c601b17ccff",
        "gas": "0x108a1",
        "value": "0x0",
        "data": "0x095ea7b3000000000000000000000000cbc9ce7898517049175280288f3838593adcc6600000000000000000000000000000000000000000000000001bc16d674ec80000",
        "nonce": "0x72",
        "accessList": []
      },
      "additionalContracts": [],
      "isFixedGasLimit": false
    },
    {
      "hash": "0xb576bcb0508869efb5d5430cfe5822a44427a4a8269a6d79740d853cd56a7236",
      "transactionType": "CALL",
      "contractName": null,
      "contractAddress": "0xcbC9ce7898517049175280288f3838593Adcc660",
      "function": null,
      "arguments": null,
      "transaction": {
        "type": "0x02",
        "from": "0x0ccfc28ce76f48726c59fc2a598b6eaac8bd3ab4",
        "to": "0xcbc9ce7898517049175280288f3838593adcc660",
        "gas": "0x54df1",
        "value": "0x0",
        "data": "0xe8e337000000000000000000000000003e8d3319cbb430685ca1b100f83e4c882e65d635000000000000000000000000083c06f4191e5350ba7ce70a9ab86c601b17ccff0000000000000000000000000000000000000000000000000de0b6b3a76400000000000000000000000000000000000000000000000000001bc16d674ec800000000000000000000000000000000000000000000000000000de0b6b3a76400000000000000000000000000000000000000000000000000001bc16d674ec800000000000000000000000000001804c8ab1f12e6bbf3894d4083f33e07309d1f380000000000000000000000000000000000000000000000000000000065e95c84",
        "nonce": "0x73",
        "accessList": []
      },
      "additionalContracts": [],
      "isFixedGasLimit": false
    }
  ],
  "receipts": [
    {
      "transactionHash": "0xfad77b8e6c70230b69577cf8d0a8bbab3c8eaeb5fa899231868586d23c1a2b6b",
      "transactionIndex": "0x8",
      "blockHash": "0x17907ba5557d53d40dcd7fbec018659b4e357b4ed2a6dd930e82b80a569f4e34",
      "blockNumber": "0x48f3e3",
      "from": "0x0CCfc28Ce76f48726C59Fc2a598b6eAac8bd3Ab4",
      "to": null,
      "cumulativeGasUsed": "0xb4960",
      "gasUsed": "0x8b920",
      "contractAddress": "0xF084549E15599AaD0420109a82d59348800CB1Aa",
      "logs": [],
      "status": "0x1",
      "logsBloom": "0x00000000000000000000000000000000000000000000000000000000000000000000000000000000000000000000000000000000000000000000000000000000000000000000000000000000000000000000000000000000000000000000000000000000000000000000000000000000000000000000000000000000000000000000000000000000000000000000000000000000000000000000000000000000000000000000000000000000000000000000000000000000000000000000000000000000000000000000000000000000000000000000000000000000000000000000000000000000000000000000000000000000000000000000000000000000",
      "type": "0x2",
      "effectiveGasPrice": "0xbc03ed88"
    },
    {
      "transactionHash": "0x07c71b99289d788af03ef0dce851f61b6c71079c199796b38fe024b5e2e19edb",
      "transactionIndex": "0x9",
      "blockHash": "0x17907ba5557d53d40dcd7fbec018659b4e357b4ed2a6dd930e82b80a569f4e34",
      "blockNumber": "0x48f3e3",
      "from": "0x0CCfc28Ce76f48726C59Fc2a598b6eAac8bd3Ab4",
      "to": "0x3E8D3319CbB430685CA1b100f83E4C882e65D635",
      "cumulativeGasUsed": "0xbfe52",
      "gasUsed": "0xb4f2",
      "contractAddress": null,
      "logs": [
        {
          "address": "0x3E8D3319CbB430685CA1b100f83E4C882e65D635",
          "topics": [
            "0x8c5be1e5ebec7d5bd14f71427d1e84f3dd0314c0f7b2291e5b200ac8c7c3b925",
            "0x0000000000000000000000000ccfc28ce76f48726c59fc2a598b6eaac8bd3ab4",
            "0x000000000000000000000000cbc9ce7898517049175280288f3838593adcc660"
          ],
          "data": "0x0000000000000000000000000000000000000000000000000de0b6b3a7640000",
          "blockHash": "0x17907ba5557d53d40dcd7fbec018659b4e357b4ed2a6dd930e82b80a569f4e34",
          "blockNumber": "0x48f3e3",
          "transactionHash": "0x07c71b99289d788af03ef0dce851f61b6c71079c199796b38fe024b5e2e19edb",
          "transactionIndex": "0x9",
          "logIndex": "0x0",
          "removed": false
        }
      ],
      "status": "0x1",
      "logsBloom": "0x00000000000000000000000000000000000000000000000000000000000000080000000000400000000004000000000000000000000000020000000000200000000000000000000000000000000000000000000000000000000000000000000000000000000000000000000000000000000000000000000000000000800000000000000000000000000000000000000000000000040000000000000000000000020000000000000000000000000000000204000000000000000000000000000000000000000000000000000000000000000000000000000000000000000000000010010000000000000000000000000000000000000000000000000000000000",
      "type": "0x2",
      "effectiveGasPrice": "0xbc03ed88"
    },
    {
      "transactionHash": "0x27c308d34da08221d04be141bf570b8b415bb975d3c3541e42cee50899400a48",
      "transactionIndex": "0xa",
      "blockHash": "0x17907ba5557d53d40dcd7fbec018659b4e357b4ed2a6dd930e82b80a569f4e34",
      "blockNumber": "0x48f3e3",
      "from": "0x0CCfc28Ce76f48726C59Fc2a598b6eAac8bd3Ab4",
      "to": "0x083C06f4191e5350ba7Ce70a9Ab86c601b17cCFf",
      "cumulativeGasUsed": "0xcb344",
      "gasUsed": "0xb4f2",
      "contractAddress": null,
      "logs": [
        {
          "address": "0x083C06f4191e5350ba7Ce70a9Ab86c601b17cCFf",
          "topics": [
            "0x8c5be1e5ebec7d5bd14f71427d1e84f3dd0314c0f7b2291e5b200ac8c7c3b925",
            "0x0000000000000000000000000ccfc28ce76f48726c59fc2a598b6eaac8bd3ab4",
            "0x000000000000000000000000cbc9ce7898517049175280288f3838593adcc660"
          ],
          "data": "0x0000000000000000000000000000000000000000000000001bc16d674ec80000",
          "blockHash": "0x17907ba5557d53d40dcd7fbec018659b4e357b4ed2a6dd930e82b80a569f4e34",
          "blockNumber": "0x48f3e3",
          "transactionHash": "0x27c308d34da08221d04be141bf570b8b415bb975d3c3541e42cee50899400a48",
          "transactionIndex": "0xa",
          "logIndex": "0x1",
          "removed": false
        }
      ],
      "status": "0x1",
      "logsBloom": "0x00000000000000000000000000000000000000000000000000000000000000000000000000400000000000000000000000000000000000020000000000200000000000000000000000000000000000000000000000000000000000000000000000000000000000000000000000000000000000000000000000000000800000000000000000000000000000000000000000000000040000080000000000000000020000000000000000000000000000000200000000000000000800000004000000000000000000000000000000000000000000000000000000000000000000000010010000000000000000000000000000000000000000000000000000000000",
      "type": "0x2",
      "effectiveGasPrice": "0xbc03ed88"
    },
    {
      "transactionHash": "0xb576bcb0508869efb5d5430cfe5822a44427a4a8269a6d79740d853cd56a7236",
      "transactionIndex": "0xb",
      "blockHash": "0x17907ba5557d53d40dcd7fbec018659b4e357b4ed2a6dd930e82b80a569f4e34",
      "blockNumber": "0x48f3e3",
      "from": "0x0CCfc28Ce76f48726C59Fc2a598b6eAac8bd3Ab4",
      "to": "0xcbC9ce7898517049175280288f3838593Adcc660",
      "cumulativeGasUsed": "0x1053c6",
      "gasUsed": "0x3a082",
      "contractAddress": null,
      "logs": [
        {
          "address": "0x3E8D3319CbB430685CA1b100f83E4C882e65D635",
          "topics": [
            "0xddf252ad1be2c89b69c2b068fc378daa952ba7f163c4a11628f55a4df523b3ef",
            "0x0000000000000000000000000ccfc28ce76f48726c59fc2a598b6eaac8bd3ab4",
            "0x00000000000000000000000062e5fdd491e5e8642b6e7a2c07119784c904d2ff"
          ],
          "data": "0x0000000000000000000000000000000000000000000000000de0b6b3a7640000",
          "blockHash": "0x17907ba5557d53d40dcd7fbec018659b4e357b4ed2a6dd930e82b80a569f4e34",
          "blockNumber": "0x48f3e3",
          "transactionHash": "0xb576bcb0508869efb5d5430cfe5822a44427a4a8269a6d79740d853cd56a7236",
          "transactionIndex": "0xb",
          "logIndex": "0x2",
          "removed": false
        },
        {
          "address": "0x083C06f4191e5350ba7Ce70a9Ab86c601b17cCFf",
          "topics": [
            "0xddf252ad1be2c89b69c2b068fc378daa952ba7f163c4a11628f55a4df523b3ef",
            "0x0000000000000000000000000ccfc28ce76f48726c59fc2a598b6eaac8bd3ab4",
            "0x00000000000000000000000062e5fdd491e5e8642b6e7a2c07119784c904d2ff"
          ],
          "data": "0x0000000000000000000000000000000000000000000000001bc16d674ec80000",
          "blockHash": "0x17907ba5557d53d40dcd7fbec018659b4e357b4ed2a6dd930e82b80a569f4e34",
          "blockNumber": "0x48f3e3",
          "transactionHash": "0xb576bcb0508869efb5d5430cfe5822a44427a4a8269a6d79740d853cd56a7236",
          "transactionIndex": "0xb",
          "logIndex": "0x3",
          "removed": false
        },
        {
          "address": "0x62e5FDd491E5e8642b6E7a2C07119784C904d2ff",
          "topics": [
            "0xddf252ad1be2c89b69c2b068fc378daa952ba7f163c4a11628f55a4df523b3ef",
            "0x0000000000000000000000000000000000000000000000000000000000000000",
            "0x0000000000000000000000000000000000000000000000000000000000000000"
          ],
          "data": "0x00000000000000000000000000000000000000000000000000000000000003e8",
          "blockHash": "0x17907ba5557d53d40dcd7fbec018659b4e357b4ed2a6dd930e82b80a569f4e34",
          "blockNumber": "0x48f3e3",
          "transactionHash": "0xb576bcb0508869efb5d5430cfe5822a44427a4a8269a6d79740d853cd56a7236",
          "transactionIndex": "0xb",
          "logIndex": "0x4",
          "removed": false
        },
        {
          "address": "0x62e5FDd491E5e8642b6E7a2C07119784C904d2ff",
          "topics": [
            "0xddf252ad1be2c89b69c2b068fc378daa952ba7f163c4a11628f55a4df523b3ef",
            "0x0000000000000000000000000000000000000000000000000000000000000000",
            "0x0000000000000000000000001804c8ab1f12e6bbf3894d4083f33e07309d1f38"
          ],
          "data": "0x00000000000000000000000000000000000000000000000013a04bbdfdc9baa0",
          "blockHash": "0x17907ba5557d53d40dcd7fbec018659b4e357b4ed2a6dd930e82b80a569f4e34",
          "blockNumber": "0x48f3e3",
          "transactionHash": "0xb576bcb0508869efb5d5430cfe5822a44427a4a8269a6d79740d853cd56a7236",
          "transactionIndex": "0xb",
          "logIndex": "0x5",
          "removed": false
        },
        {
          "address": "0x62e5FDd491E5e8642b6E7a2C07119784C904d2ff",
          "topics": [
            "0x1c411e9a96e071241c2f21f7726b17ae89e3cab4c78be50e062b03a9fffbbad1"
          ],
          "data": "0x0000000000000000000000000000000000000000000000001bc16d674ec800000000000000000000000000000000000000000000000000000de0b6b3a7640000",
          "blockHash": "0x17907ba5557d53d40dcd7fbec018659b4e357b4ed2a6dd930e82b80a569f4e34",
          "blockNumber": "0x48f3e3",
          "transactionHash": "0xb576bcb0508869efb5d5430cfe5822a44427a4a8269a6d79740d853cd56a7236",
          "transactionIndex": "0xb",
          "logIndex": "0x6",
          "removed": false
        },
        {
          "address": "0x62e5FDd491E5e8642b6E7a2C07119784C904d2ff",
          "topics": [
            "0x4c209b5fc8ad50758f13e2e1088ba56a560dff690a1c6fef26394f4c03821c4f",
            "0x000000000000000000000000cbc9ce7898517049175280288f3838593adcc660"
          ],
          "data": "0x0000000000000000000000000000000000000000000000001bc16d674ec800000000000000000000000000000000000000000000000000000de0b6b3a7640000",
          "blockHash": "0x17907ba5557d53d40dcd7fbec018659b4e357b4ed2a6dd930e82b80a569f4e34",
          "blockNumber": "0x48f3e3",
          "transactionHash": "0xb576bcb0508869efb5d5430cfe5822a44427a4a8269a6d79740d853cd56a7236",
          "transactionIndex": "0xb",
          "logIndex": "0x7",
          "removed": false
        }
      ],
      "status": "0x1",
      "logsBloom": "0x000000001000000000000000800000010000000020000000000000000000010800000000004000000000040000000000000000000000000200000000000000000000000000000000000000080000000000000000000000000000000000000000000008000200000000010000000008000000000000080000000000108000000000000000000000000000040000000000000000000400000c0000000000000000000000000000000000000000000000000204000000000000000900000004000000000002000004000000000000020000000000000000001000000000000020000000010000000000000000000000000000000000000000000000000000000000",
      "type": "0x2",
      "effectiveGasPrice": "0xbc03ed88"
    }
  ],
  "libraries": [],
  "pending": [],
  "returns": {},
  "timestamp": 1701152429,
  "chain": 11155111,
  "multi": false,
  "commit": "d532714"
}